:03000000020609EC
:0C060900787FE4F6D8FD758147020650AA
:1006950088080A0A0A0A0A0A0A0A880000000000ED
:1006A50000000000013500C102023C0000013E00CF
:1006B500014100082D000000000000000003270D87
:1006C5000305033900000002230000C103C1040231
:1006D500250000022B000002440000023600000243
:1006E5003F0000012A00C100C101C106C105014644
:1006F50000014700014200013800014300012100CB
:100BAF00759850438E01438E0475D7C775D6FE4393
:030BBF008E102273
:100BC2007842E6700D784276017B007A007927122E
:030BD20008D42222
:100719007843E670667843760130015F20060F1250
:1007290009541202FA782BA60608A607D206200554
:100739004A7836E6FE08E6FFC394C8EE94004039CD
:10074900D3EF94D0EE94075030D200E625E0FD189F
:10075900E633FCE41202C1E4FBFA7934784212026E
:100769001F7BE47A38798E783F1200251202FA78D5
:0C0779002AEFF6120C16D20522C2002254
:1007E3007838E67050783876012001491209F77E8F
:1007F300007823EEF608EFF67C007D641203F5AC77
:1008030006AD07E41202C1E4FBFA794C7842120206
:100813001F1202FA7823EEF608EFF6A2049203C33E
:1008230094C8EE94004004C2048002D2043004054C
:06083300200302D20122A5
:10055F007846E66003020608784676013001377860
:10056F0008740DF208740AF208F2782BE6FA08E61E
:10057F00FB7C007D0AFFAE02120407780BEFF27CC2
:10058F00007D0AAF03AE02120407780CEDF2087477
:10059F000BF2782A803B783EE614604804705A7854
:1005AF0027E6FF75F00A847808F2EF75F00A8408E1
:1005BF00E5F0F208740BF27828E6FF75F00A8478FC
:1005CF000BF2EF75F00A8408E5F0F208740BF2787D
:1005DF0029E6FF75F00A84780EF2EF75F00A8408A9
:1005EF00E5F0F2227808740CF208740AF208F208A7
:0A05FF00F208F208F208F208F222F6
:10083900E4F5197847E6704D78477601E521C45407
:10084900F0F521120AA2EF4221E5215411FFBF1050
:1008590003751904E5215422FFBF2003751905E525
:10086900215444FFBF4003751908E5215488FFBF8F
:100879008003751909E51924FC700A783E06E675A6
:05088900F00384A6F05D
:01088E002247
:100BD500438E805389F0438904E4F58AF58CC28DF0
:030BE500D28C228D
:100B8500438E4053890F758B20758DD1C28FD28EC0
:050B9500D2ABD2AF223B
:03001B0002046A72
:10046A00C0E0C0F0C083C082C0D075D000C000C058
:10047A0001C002C003C004C005C006C00778460612
:10048A007835067847067842060806783806300135
:10049A0021782606E618700106C37826E694B8186D
:1004AA00E6940B400DC201C205C206C200760008DE
:1004BA007600784006E618700106783F0806E618C6
:1004CA00860670010614C394E8EE9403401CC28C9D
:1004DA00AF8CEFAD8A7836F6ED08F6758C00758A22
:1004EA0000D28C783F76000876007846E6C3945AA4
:1004FA00400276007835E6C39408400276007847D1
:10050A00E6C39414400276007842E6C394A04002FF
:10051A0076007843E6C394A0400276007838E6C3B2
:10052A009464400276007835E6FF2408F8E2FD7804
:10053A0035E62400F8E2FB12088FD007D006D00572
:10054A00D004D003D002D001D000D0D0D082D08342
:05055A00D0F0D0E032FA
:100A7C00120B85120BD5120BAF7B007A0079271263
:100A8C000785120954120BC212055F12083912079E
:060A9C00E312071980EFD0
:10098C00EF24FB601314601914601F24037024E51A
:10099C00A0541F4480F5A022E5A0541F44A0F5A04C
:1009AC0022E5A0541F44C0F5A022E5A0541F44E04A
:0709BC00F5A02253A01F2249
:100AE6007580FF7F0412098C7580AF0F12098C7513
:0D0AF60080FF0F12098C7580FF0F02098C24
:100705001108C0F9A4B0999282F88090FFBFC686FF
:030715008E8C883F
:10088F008F1A8D1B8B1C7580FF7F0712098CE4FF5D
:10089F0012098CAF1A7401A807088002C333D8FC61
:1008AF00F5807F0612098CE4FF12098C7408251B52
:1008BF00F8E6F580E51C600353807F7F0712098CF3
:0508CF00E4FF02098CAA
:060919008B1D8A1E891FE0
:10091F00E4FFFEAB1DAA1EA91F8E82758300120372
:10092F0094FDA806088002C333D8FC42070EBE0808
:10093F00E2EF6522600EEFF4F5807F0412098CE47C
:04094F00FF12098CFE
:010953002281
:100AA200E4FFD2C2D2C4D2B3D2B2C2C420B3010FC5
:100AB20020B2027F02D2C4C2C220B3027F0420B29B
:050AC200027F08D2C212
:010AC700220C
:100BE800E4FEC297EF1392A3EFC313FFD2970EBE92
:020BF80008F003
:010BFA0022D8
:030B6E0025F0FD72
:100B7100C29300C29700D29300120BE8AF05120B8B
:040B8100E8C2932211
:1009C300E4FDC29300C29700D29300120BE8E4FF48
:1009D300C297EDC313FD30A303430580D2970FBF26
:1009E30008EEC29300C29700D29700C2A300D2A31D
:0309F30000AF054D
:0109F60022DE
:10078500E4FD7F8E120B7112037BFF75F00A84C4A2
:1007950054F0FEEF75F00A84EE7F84120B6E900024
:1007A5000112039475F00A84C454F0FF12037B759B
:1007B500F00A84EF7F82120B6E900002120394758B
:1007C500F00A84C454F0FF12037B75F00A84EF2508
:0E07D500F0FD7F80120B717D807F8E020B7114
:1008D4007F851209C3EFC4540F75F00AA4FEEF54C8
:1008E4000F2E1203C17F831209C3EFC4540F75F096
:1008F4000AA4FEEF540F2E9000011203D37F81123D
:1009040009C3EFC4540F75F00AA4FEEF540F2E90E0
:0509140000020203D304
:040B2000D2A07F0AD6
:100B2400000000000000000000000000000000AE13
:060B3400071FEE70EB222A
:0F0BFB00D2A1120B20C2A17F0A120B24C2A0228A
:0C0C0A00C2A1120B20D2A17F0A020B2411
:020A2900AD0717
:100A2B00E4FCC2A07F0A120B24ED30E704D2A180B4
:100A3B0002C2A17F0A120B24D2A0ED25E0FD7F0A92
:090A4B00120B240CBC08DBC2A054
:010A5400227F
:100B0300E4FC120B20ED25E0FD30A103430501C2F7
:0C0B1300A07F0A120B240CBC08E8AF0500
:010B1F0022B3
:030B9A00120A2913
:100B9D00120B20A2A1E433FDC2A07F0A120B24AFD9
:010BAD000542
:010BAE002224
:10000300C2A0EF24FF92A17F0A120B24120B20C27D
:08001300A0D2A17F0A020B2418
:1009F700E4FD120BFB7F90120B9A7F01120B9A12E8
:100A07000BFB7F91120A29120B9D120B03E4FF12B5
:100A17000003120B03AD077F01120003120C0AAF8C
:010A270005C9
:010A280022AB
:040B3A007F057E00B5
:100B3E00EF1FAA0670011E4A600BE4FDEDC3940C74
:050B4E0050EE0D80F7E0
:010B5300227F
:020AC800A9077C
:100ACA00E4FBC294E9139294120B3AD294E9C31349
:0C0ADA00F90BBB08ED7F057E00020B3E0F
:100B5400E4FBC294ECC313FCD294309403430480AA
:090B6400120B3A0BBB08EBAF04C5
:010B6D002265
:100A5500C207D2947F0C7E00120B3EC2947F507E5B
:100A650000120B3ED2947F0A7E00120B3EA2949296
:060A750007120B3AA20774
:010A7B002258
:10095400E4F9FF120A557FCC120AC87F44120AC870
:10096400120A557FCC120AC87FBE120AC8120B5451
:10097400A907120B54EFAD01FCE41202C1E4FBFA27
:070984007980783D12011695
:01098B002249
:080C16008F993099FDC299226B
:10001E00020366E86480F8E933E83360110460F0A7
:10002E00ED33EC337009E8FCE9FDEAFEEBFF220448
:10003E0060DED3EB9FEA9EE99DE8C2E78CF0C2F743
:10004E0095F0400CE8CCF8E9CDF9EACEFAEBCFFB0F
:10005E0012033185D0F05804700320D5B3E8047034
:10006E00075002B2D502037092D5EC0460F7E4CCCF
:10007E00C0E0C398F8603B94186008400DD0E0FBD8
:10008E00020348E4FBFAC9FC8028E830E406E4C920
:10009E00FBE4CAFCE830E305E4C9CACBFCE854072C
:1000AE006010F8C3E913F9EA13FAEB13FBEC13FC37
:1000BE00D8F130F52FC3E49CFCEF9BFFEE9AFEEDDA
:1000CE0099FDD0E0FBEF4E4D4C701222DB03020384
:1000DE006DEC2CFCEF33FFEE33FEED33FDED30E730
:1000EE00EB020348EF2BFFEE3AFEED39FDD0E0FBBD
:1000FE0050130BBB0003020370ED13FDEE13FEEF66
:08010E0013FFEC13FC0203488F
:10011600EC4D6011E8497017ED33EC3304600DE4E3
:10012600FCFFFEFD22E933E8330470F80203661291
:10013600033158046009E4CC248150062850090292
:10014600037028400302036DC0E0EB4A7044B98097
:1001560006D0E0FB02035CEF4E701CBD8008EBFF8F
:10016600EAFEE9FD80EBE98DF0A4FEE5F00201FF71
:10017600E9CDF9EAFEEBFFEF89F0A4FCE5F0CE89C4
:10018600F0A42EFFE435F0CD89F0A42DFEE435F081
:100196008067EF4E7005BD80D780C3EF8BF0A4ACAF
:1001A600F0EE8BF0A42CFCE435F0F8EF8AF0A42CEA
:1001B600E5F038FCE433CB8DF0A42CFCE5F03BF8FD
:1001C600EE8AF0A42CFCE5F038F8E433CF89F0A4ED
:1001D6002CFCE5F038CF3400CE89F0A42FFFE5F0F3
:1001E6003EFEE433C98DF0A42EFEE5F039CD8AF04B
:1001F600A42FFFE5F03EFEE43DFD33D0E0FB5007C3
:100206000BBB000F020370EC2CFCEF33FFEE33FE4A
:06021600ED33FD02034878
:10021C00020370EC5D046005E85904700302036688
:10022C00120331580460F6EC4860F2EC7004FDFEE9
:10023C00FF22C860DB2481C85009C39860025006B5
:10024C0002036D9850CAF582E9294B4A7005AB82BE
:10025C0002035C75F0007C1A7880C3EF9BEE9AED7C
:10026C0099400DC3EF9BFFEE9AFEED99FDE842F02D
:10027C00DC23ACF0D0E0FFD0E0FED0E0FDAB822080
:10028C00E7101BEB60BAEC2CFCEF33FFEE33FEED0A
:10029C0033FD020348E803F830E705C0F075F000C1
:1002AC00EF2FFFEE33FEED33FD40B830E7C280AAEE
:1002BC0075F020800E75F010800575F0087D007EBD
:1002CC00007F003392D530D50312045CEC33401020
:1002DC00EF33FFEE33FEED33FDEC33FCD5F0ED22C6
:0E02EC00E5F0247EA2D513CC92E7CDCEFF2202
:1002FA00EDD2E7CD33EC3392D524814006E4FFFEFC
:10030A00FDFC22FCE4CFCECDCC24E0501174FF805A
:10031A00EDC3CC13CCCD13CDCE13CECF13CF0470F7
:07032A00F030D5DE02045C97
:10033100E9D2E7C933E833F892D5EDD2E7CD33EC12
:0703410033FC5002B2D5228B
:10034800EC30E7100FBF000C0EBE00080DBD000416
:100358000BEB6014A2D5EB13FCED92E7FD2274FFC2
:10036800FCFDFEFF22E480F8A2D574FF13FC7D801B
:03037800E480EF2F
:10061500020A7CE493A3F8E493A34003F68001F275
:1006250008DFF48029E493A3F85407240CC8C333E6
:10063500C4540F4420C8834004F456800146F6DFB5
:10064500E4800B0102040810204080900695E47EAA
:10065500019360BCA3FF543F30E509541FFEE493AA
:10066500A360010ECF54C025E060A840B8E493A371
:10067500FAE493A3F8E493A3C8C582C8CAC583CA9C
:10068500F0A3C8C582C8CAC583CADFE9DEE780BE54
:0107180000E0
:10037B00BB010689828A83E0225002E722BBFE0280
:09038B00E32289828A83E49322B3
:10039400BB010CE58229F582E5833AF583E022501E
:1003A40006E92582F8E622BBFE06E92582F8E22268
:0D03B400E58229F582E5833AF583E4932282
:1003C100BB010689828A83F0225002F722BBFE011B
:0203D100F32215
:1003D300F8BB010DE58229F582E5833AF583E8F060
:1003E300225006E92582C8F622BBFE05E92582C80C
:0203F300F222F4
:1003F500EF8DF0A4A8F0CF8CF0A428CE8DF0A42E1C
:02040500FE22D5
:10040700BC000BBE0029EF8DF084FFADF022E4CCD9
:10041700F875F008EF2FFFEE33FEEC33FCEE9DECA2
:10042700984005FCEE9DFE0FD5F0E9E4CEFD22EDE8
:10043700F8F5F0EE8420D21CFEADF075F008EF2F32
:10044700FFED33FD4007985006D5F0F222C398FD23
:050457000FD5F0EA22C0
:0E045C00C3E49FFFE49EFEE49DFDE49CFC22B1
:00000001FF
