:03000000020A34BD
:0C0A3400787FE4F6D8FD758153020A7B40
:1008FC0088080A0A0A0A0A0A0A0A88000000000084
:10090C0000000000013900C103024500000147004E
:10091C00014A000831000000000000000003290D0E
:10092C0003050340000000013C0002430000023EAE
:10093C00000002250000C104C10502270000022DA1
:10094C00000002500000022F001E023A0000024874
:10095C000000012C00014E00C101C102C107C106FB
:10096C00024C0000C100015200015300014B000178
:08097C003D00014F00011E00C7
:100E9400759850438E01438E0475D7C775D6FE43AB
:030EA4008E10228B
:100EA700784BE6700D784B76017B007A0079291232
:030EB7000BB92252
:1006D400784FE660030207F1784F760120020302A7
:1006E40007F130060302078F783AE6FE08E6FFC3F7
:1006F40094C8EE9400500302078DD3EF94D0EE9487
:1007040007400302078D08067829E67840F6782A20
:10071400E67841F6D201783BE625E0FD18E633FCA5
:10072400E41202C1E4FBFA7934784212021F7BE43A
:100734007A38798E783F1200251202FA782CEFF677
:10074400784EE6FEEFD39E4006782CE6784EF67897
:100754003CE6FB7A0024FFFFEA34FFFE783EE6FC29
:1007640008E6FD1203F5AC06AD07782CE675F00A31
:10077400A42DFFEC35F0FEAD037C00120407783E97
:10078400A60608A607D2068002C20120075F120C43
:10079400391202FA782DA60608A60730014D18E68C
:1007A400FE08E6FFD3785196EE18964005A6060893
:1007B400A607783CE6F924FFFFE434FFFE7843E61D
:1007C400FC08E6FD1203F5AA06AB07782DE6FE0841
:1007D400E6FF7C007D0A1203F5EB2FFFEA3EFEE9FB
:0E07E400FD1204077843A60608A607D20722D6
:100B1E00783DE67050783D7601200249120CDC7E5D
:100B2E00007825EEF608EFF67C007D641203F5AC36
:100B3E0006AD07E41202C1E4FBFA794C78421202C8
:100B4E001F1202FA7825EEF608EFF6A2059204C3FC
:100B5E0094C8EE94004004C2058002D2053005050B
:060B6E00200402D2022265
:10046A007852E660030206D37852760130025FE4DE
:10047A007806F27808740DF208740AF208F2782DF8
:10048A00E6FA08E6FB7C007D0AFFAE0230011E1286
:10049A000407780BEFF27C007D0AAF03AE02120468
:1004AA0007780CEDF208740BF2782C8066120407B8
:1004BA00780BEFF27C007D0AAF03AE0212040778D4
:1004CA000CEDF208740BF2087410F208F222784765
:1004DA00E614605114700302069B240260030206AC
:1004EA00D37829E6FF75F00A847808F2EF75F00AE6
:1004FA008408E5F0F208740BF2782AE6FF75F00A30
:10050A0084780BF2EF75F00A8408E5F0F208740BB0
:10051A00F2782BE6FF75F00A84780EF2EF75F00A8E
:10052A00840802066F784AE61470030205B914704B
:10053A0003020625240260030206D3783CE6780803
:10054A006063740CF208740AF27850E6FA08E6FB63
:10055A007C007D0AFFAE02120407780AEFF27C00E3
:10056A007D0AAF03AE02120407780BEDF208740B92
:10057A00F27843E6FA08E6FB7C007D64FFAE0212DD
:10058A000407780DEFF27C007D0AAF03AE02120475
:10059A00077C007D0A120407780EEDF278067401D2
:1005AA00F278438062740CF208740AF20880687860
:1005BA00087411F208740AF2783CE66056784EE63E
:1005CA00FF75F00A84780AF2EF75F00A8408E5F0FC
:1005DA00F208740BF2783EE6FA08E6FB7C007D64CA
:1005EA00FFAE02120407780DEFF27C007D0AAF031A
:1005FA00AE021204077C007D0A120407780EEDF29F
:10060A0078067401F2783EE6FE08E6FF7C007D0A71
:10061A000206CC780A740AF20880657808740EF229
:10062A00783CE66044E6FF75F00A847809F2EF75D3
:10063A00F00A8408E5F0F27840E6FF75F00A84785B
:10064A000BF2EF75F00A8408E5F0F208740BF27801
:10065A0041E6FF75F00A84780EF2E47806F2EF7547
:10066A00F00A84780FE5F0F222783CE6FF75F00A8A
:10067A00847809F2EF75F00A8408E5F0F208740A42
:10068A00F208F208F208F2E47806F2780F740AF235
:10069A00227808740FF208740AF208F208F208F2D3
:1006AA0008F2782FE6FA08E6FB7C007D0AFFAE0224
:1006BA00120407780EEFF2E47806F2FC7D0AAF0323
:0A06CA00AE02120407780FEDF222D1
:10099900E4F51A7853E66003020A3378537601E5E1
:1009A9001EC454F0F51E120D87EF421EE51E5411A8
:1009B900FFBF1003751A04E51E5422FFBF200375FB
:1009C9001A05E51E5444FFBF4003751A08E51E5475
:1009D90088FFBF8003751A09BF8802D200E51A246F
:1009E900FB601824FD60261460322405703C7847AA
:1009F90006E675F00384AFF0EFF6227847E6640166
:100A09007028784A06E675F00384A6F0227847E64E
:100A1900B40217783006E618701006227847E6B453
:0A0A290002087830E6161870011676
:010A330022A0
:100EBA00438E805389F0438904E4F58AF58CC28D08
:030ECA00D28C22A5
:100E6A00438E4053890F758B20758DD1C28FD28ED8
:050E7A00D2ABD2AF2253
:03001B000207F2E7
:1007F200C0E0C0F0C083C082C0D075D000C000C0CD
:1008020001C002C003C004C005C006C0077852067A
:10081200783906785306784B06784F06783D0630CD
:100822000221782806E618700106C37828E694B8F3
:1008320018E6940B400DC202C206C207C20176003E
:10084200087600784906E61870010678480806E638
:1008520018860670010614C394E8EE9403401CC285
:100862008CAF8CEFAD8A783AF6ED08F6758C007590
:100872008A00D28C7848760008760030000A784DDB
:1008820006E6187001068007784C76000876007834
:1008920052E6C3945A400276007839E6C39408407F
:1008A2000276007853E6C3941440027600784BE651
:1008B200C394A040027600784FE6C394A04002762B
:1008C20000783DE6C39464400276007839E6FF245E
:1008D20008F8E2FD7839E62400F8E2FB120B74D046
:1008E20007D006D005D004D003D002D001D000D06A
:0A08F200D0D082D083D0F0D0E032E5
:100D6100120E6A120EBA120E947B007A00792912C1
:100D71000AC0120C39120EA712046A120999120B39
:060D81001E1206D480EFF3
:100C7100EF24FB601314601914601F24037024E532
:100C8100A0541F4480F5A022E5A0541F44A0F5A064
:100C910022E5A0541F44C0F5A022E5A0541F44E062
:070CA100F5A02253A01F2261
:100DCB007580FF7F04120C717580AF0F120C71755B
:0D0DDB0080FF0F120C717580FF0F020C716C
:100984001208C0F9A4B0999282F88090FFBFC6867D
:040994008E8C888934
:100B74008F1B8D1C8B1D7580FF7F07120C71E4FF8A
:100B8400120C71AF1B7401A807088002C333D8FC90
:100B9400F5807F06120C71E4FF120C717408251C99
:100BA400F8E6F580E51D600353807F7F07120C7122
:050BB400E4FF020C71DA
:060BFE008B228A238924EA
:100C0400E4FFFEAB22AA23A9248E8275830012037B
:100C140094FDA806088002C333D8FC42070EBE0820
:100C2400E2EF651F600EEFF4F5807F04120C71E4AF
:040C3400FF120C712E
:010C38002299
:100D8700E4FFD2C2D2C4D2B3D2B2C2C420B3010FDD
:100D970020B2027F02D2C4C2C220B3027F0420B2B3
:050DA700027F08D2C22A
:010DAC002224
:100ECD00E4FEC297EF1392A3EFC313FFD2970EBEAA
:020EDD0008F01B
:010EDF0022F0
:030E530025F0FD8A
:100E5600C29300C29700D29300120ECDAF05120EB8
:040E6600CDC2932244
:100CA800E4FDC29300C29700D29300120ECDE4FF78
:100CB800C297EDC313FD30A303430580D2970FBF3E
:100CC80008EEC29300C29700D29700C2A300D2A335
:030CD80000AF0565
:010CDB0022F6
:100AC000E4FD7F8E120E5612037BFF75F00A84C47C
:100AD00054F0FEEF75F00A84EE7F84120E539000FE
:100AE0000112039475F00A84C454F0FF12037B755D
:100AF000F00A84EF7F82120E539000021203947565
:100B0000F00A84C454F0FF12037B75F00A84EF25C9
:0E0B1000F0FD7F80120E567D807F8E020E5605
:100BB9007F85120CA8EFC4540F75F00AA4FEEF54F8
:100BC9000F2E1203C17F83120CA8EFC4540F75F0C6
:100BD9000AA4FEEF540F2E9000011203D37F811255
:100BE9000CA8EFC4540F75F00AA4FEEF540F2E9011
:050BF90000020203D31D
:040E0500D2A07F0AEE
:100E0900000000000000000000000000000000AE2B
:060E1900071FEE70EB2242
:0F0EE000D2A1120E05C2A17F0A120E09C2A022D2
:0C0EEF00C2A1120E05D2A17F0A020E095A
:020D0E00AD072F
:100D1000E4FCC2A07F0A120E09ED30E704D2A180E4
:100D200002C2A17F0A120E09D2A0ED25E0FD7F0AC2
:090D3000120E090CBC08DBC2A084
:010D39002297
:100DE800E4FC120E05ED25E0FD30A103430501C228
:0C0DF800A07F0A120E090CBC08E8AF0531
:010E040022CB
:030E7F00120D0E43
:100E8200120E05A2A1E433FDC2A07F0A120E09AF21
:010E9200055A
:010E9300223C
:10000300C2A0EF24FF92A17F0A120E09120E05C2AD
:08001300A0D2A17F0A020E0930
:100CDC00E4FD120EE07F90120E7F7F01120E7F1248
:100CEC000EE07F91120D0E120E82120DE8E4FF122F
:100CFC000003120DE8AD077F01120003120EEFAFD7
:010D0C0005E1
:010D0D0022C3
:040E1F007F057E00CD
:100E2300EF1FAA0670011E4A600BE4FDEDC3940C8C
:050E330050EE0D80F7F8
:010E38002297
:020DAD00A90794
:100DAF00E4FBC294E9139294120E1FD294E9C31379
:0C0DBF00F90BBB08ED7F057E00020E233F
:100E3900E4FBC294ECC313FCD294309403430480C2
:090E4900120E1F0BBB08EBAF04F5
:010E5200227D
:100D3A00C208D2947F0C7E00120E23C2947F507E8A
:100D4A0000120E23D2947F0A7E00120E23A29492DE
:060D5A0008120E1FA208A2
:010D60002270
:100C3900E4F9FF120D3A7FCC120DAD7F44120DADD0
:100C4900120D3A7FCC120DAD7FBE120DAD120E39C9
:100C5900A907120E39EFAD01FCE41202C1E4FBFA57
:070C69007980783D120116AD
:010C70002261
:080EFB008F993099FDC2992284
:10001E00020366E86480F8E933E83360110460F0A7
:10002E00ED33EC337009E8FCE9FDEAFEEBFF220448
:10003E0060DED3EB9FEA9EE99DE8C2E78CF0C2F743
:10004E0095F0400CE8CCF8E9CDF9EACEFAEBCFFB0F
:10005E0012033185D0F05804700320D5B3E8047034
:10006E00075002B2D502037092D5EC0460F7E4CCCF
:10007E00C0E0C398F8603B94186008400DD0E0FBD8
:10008E00020348E4FBFAC9FC8028E830E406E4C920
:10009E00FBE4CAFCE830E305E4C9CACBFCE854072C
:1000AE006010F8C3E913F9EA13FAEB13FBEC13FC37
:1000BE00D8F130F52FC3E49CFCEF9BFFEE9AFEEDDA
:1000CE0099FDD0E0FBEF4E4D4C701222DB03020384
:1000DE006DEC2CFCEF33FFEE33FEED33FDED30E730
:1000EE00EB020348EF2BFFEE3AFEED39FDD0E0FBBD
:1000FE0050130BBB0003020370ED13FDEE13FEEF66
:08010E0013FFEC13FC0203488F
:10011600EC4D6011E8497017ED33EC3304600DE4E3
:10012600FCFFFEFD22E933E8330470F80203661291
:10013600033158046009E4CC248150062850090292
:10014600037028400302036DC0E0EB4A7044B98097
:1001560006D0E0FB02035CEF4E701CBD8008EBFF8F
:10016600EAFEE9FD80EBE98DF0A4FEE5F00201FF71
:10017600E9CDF9EAFEEBFFEF89F0A4FCE5F0CE89C4
:10018600F0A42EFFE435F0CD89F0A42DFEE435F081
:100196008067EF4E7005BD80D780C3EF8BF0A4ACAF
:1001A600F0EE8BF0A42CFCE435F0F8EF8AF0A42CEA
:1001B600E5F038FCE433CB8DF0A42CFCE5F03BF8FD
:1001C600EE8AF0A42CFCE5F038F8E433CF89F0A4ED
:1001D6002CFCE5F038CF3400CE89F0A42FFFE5F0F3
:1001E6003EFEE433C98DF0A42EFEE5F039CD8AF04B
:1001F600A42FFFE5F03EFEE43DFD33D0E0FB5007C3
:100206000BBB000F020370EC2CFCEF33FFEE33FE4A
:06021600ED33FD02034878
:10021C00020370EC5D046005E85904700302036688
:10022C00120331580460F6EC4860F2EC7004FDFEE9
:10023C00FF22C860DB2481C85009C39860025006B5
:10024C0002036D9850CAF582E9294B4A7005AB82BE
:10025C0002035C75F0007C1A7880C3EF9BEE9AED7C
:10026C0099400DC3EF9BFFEE9AFEED99FDE842F02D
:10027C00DC23ACF0D0E0FFD0E0FED0E0FDAB822080
:10028C00E7101BEB60BAEC2CFCEF33FFEE33FEED0A
:10029C0033FD020348E803F830E705C0F075F000C1
:1002AC00EF2FFFEE33FEED33FD40B830E7C280AAEE
:1002BC0075F020800E75F010800575F0087D007EBD
:1002CC00007F003392D530D50312045CEC33401020
:1002DC00EF33FFEE33FEED33FDEC33FCD5F0ED22C6
:0E02EC00E5F0247EA2D513CC92E7CDCEFF2202
:1002FA00EDD2E7CD33EC3392D524814006E4FFFEFC
:10030A00FDFC22FCE4CFCECDCC24E0501174FF805A
:10031A00EDC3CC13CCCD13CDCE13CECF13CF0470F7
:07032A00F030D5DE02045C97
:10033100E9D2E7C933E833F892D5EDD2E7CD33EC12
:0703410033FC5002B2D5228B
:10034800EC30E7100FBF000C0EBE00080DBD000416
:100358000BEB6014A2D5EB13FCED92E7FD2274FFC2
:10036800FCFDFEFF22E480F8A2D574FF13FC7D801B
:03037800E480EF2F
:100A4000020D61E493A3F8E493A34003F68001F25E
:100A500008DFF48029E493A3F85407240CC8C333B7
:100A6000C4540F4420C8834004F456800146F6DF86
:100A7000E4800B01020408102040809008FCE47E12
:100A8000019360BCA3FF543F30E509541FFEE4937B
:100A9000A360010ECF54C025E060A840B8E493A342
:100AA000FAE493A3F8E493A3C8C582C8CAC583CA6D
:100AB000F0A3C8C582C8CAC583CADFE9DEE780BE25
:01099800005E
:10037B00BB010689828A83E0225002E722BBFE0280
:09038B00E32289828A83E49322B3
:10039400BB010CE58229F582E5833AF583E022501E
:1003A40006E92582F8E622BBFE06E92582F8E22268
:0D03B400E58229F582E5833AF583E4932282
:1003C100BB010689828A83F0225002F722BBFE011B
:0203D100F32215
:1003D300F8BB010DE58229F582E5833AF583E8F060
:1003E300225006E92582C8F622BBFE05E92582C80C
:0203F300F222F4
:1003F500EF8DF0A4A8F0CF8CF0A428CE8DF0A42E1C
:02040500FE22D5
:10040700BC000BBE0029EF8DF084FFADF022E4CCD9
:10041700F875F008EF2FFFEE33FEEC33FCEE9DECA2
:10042700984005FCEE9DFE0FD5F0E9E4CEFD22EDE8
:10043700F8F5F0EE8420D21CFEADF075F008EF2F32
:10044700FFED33FD4007985006D5F0F222C398FD23
:050457000FD5F0EA22C0
:0E045C00C3E49FFFE49EFEE49DFDE49CFC22B1
:00000001FF
