:0300000002021BDE
:0C021B00787FE4F6D8FD75812F020262A6
:1004650088080A0A0A0A0A0A0A0A8800000000001F
:1004750000000000012C00012D00082400000000F0
:100485000000000003210D0305012E00012F0001CE
:020495001C0049
:10031900782EE67066782E760118E6146048047027
:100329005A7821E6FF75F00A847808F2EF75F00A29
:100339008408E5F0F208740BF27822E6FF75F00AFA
:1003490084780BF2EF75F00A8408E5F0F208740B73
:10035900F27823E6FF75F00A84780EF2EF75F00A59
:100369008408E5F0F2227808740CF208740AF2089D
:0C037900F208F208F208F208F208F22282
:10038500E4F515782FE6704D782F7601E51CC454F9
:10039500F0F51C120607EF421CE51C5411FFBF10B7
:1003A50003751504E51C5422FFBF2003751505E5EB
:1003B5001C5444FFBF4003751508E51C5488FFBF56
:1003C5008003751509E51524FC700A782D06E67578
:0503D500F00384A6F016
:0103DA002200
:1006D300438E4053890F758B20758DD1C28FD28E77
:0506E300D2ABD2AF22F2
:03001B000202A737
:1002A700C0E0C0F0C083C082C0D075D000C000C01D
:1002B70001C002C003C004C005C006C007782E06EF
:1002C700782C06782F0618E6C3945A4002760078F1
:1002D7002CE6C3940840027600782FE6C3941440B6
:1002E700027600782CE6FF2408F8E2FD782CE62455
:1002F70000F8E2FB1203DBD007D006D005D004D00C
:1003070003D002D001D000D0D0D082D083D0F0D09B
:02031700E032D2
:0B073F001206D312031912038580F884
:10051A00EF24FB601314601914601F24037024E590
:10052A00A0541F4480F5A022E5A0541F44A0F5A0C2
:10053A0022E5A0541F44C0F5A022E5A0541F44E0C0
:07054A00F5A02253A01F22BF
:10064B007580FF7F0412051A7580AF0F12051A759E
:0D065B0080FF0F12051A7580FF0F02051AAF
:0F0497000D08C0F9A4B0999282F88090FFBFC6FB
:1003DB008F168D178B187580FF7F0712051AE4FF98
:1003EB0012051AAF167401A807088002C333D8FC94
:1003FB00F5807F0612051AE4FF12051A74082517FB
:10040B00F8E6F580E518600353807F7F0712051A25
:05041B00E4FF02051AD8
:0604A7008B198A1A891B63
:1004AD00E4FFFEAB19AA1AA91B8E827583001201F7
:1004BD00ACFDA806088002C333D8FC42070EBE0867
:1004CD00E2EF651D600EEFF4F5807F0412051AE46E
:0404DD00FF12051AEB
:0104E10022F8
:10060700E4FFD2C2D2C4D2B3D2B2C2C420B3010F64
:1006170020B2027F02D2C4C2C220B3027F0420B23A
:05062700027F08D2C2B1
:01062C0022AB
:10071100E4FEC297EF1392A3EFC313FFD2970EBE6D
:0207210008F0DE
:0107230022B3
:1006FD00C29300C29700D29300120711AF051207E3
:04070D0011C2932260
:10055100E4FDC29300C29700D29300120711E4FF99
:10056100C297EDC313FD30A303430580D2970FBF9C
:1005710008EEC29300C29700D29700C2A300D2A393
:0305810000AF05C3
:010584002254
:100420007F85120551EFC4540F75F00AA4FEEF54F6
:100430000F2E1201D97F83120551EFC4540F75F0AE
:100440000AA4FEEF540F2E9000011201EB7F8112DF
:100450000551EFC4540F75F00AA4FEEF540F2E900F
:0504600000020201EBA7
:04068500D2A07F0A76
:10068900000000000000000000000000000000AEB3
:06069900071FEE70EB22CA
:0F072400D2A1120685C2A17F0A120689C2A022A5
:0C073300C2A1120685D2A17F0A0206892D
:0205B400AD0791
:1005B600E4FCC2A07F0A120689ED30E704D2A180CE
:1005C60002C2A17F0A120689D2A0ED25E0FD7F0AAC
:0905D6001206890CBC08DBC2A06E
:0105DF0022F9
:10066800E4FC120685ED25E0FD30A103430501C237
:0C067800A07F0A1206890CBC08E8AF0540
:010684002253
:0306E8001205B444
:1006EB00120685A2A1E433FDC2A07F0A120689AFD0
:0106FB0005F9
:0106FC0022DB
:10000300C2A0EF24FF92A17F0A120689120685C2BD
:08001300A0D2A17F0A020689B8
:10058500E4FB1207247F901206E87F101206E8129A
:1005950007247F911205B41206EB120668E4FF12D8
:0F05A5000003120668AB077F0112000302073341
:04069F007F057E0055
:1006A300EF1FAA0670011E4A600BE4FDEDC3940C14
:0506B30050EE0D80F780
:0106B800221F
:02062D00A9071B
:10062F00E4FBC294E913929412069FD294E9C31388
:0C063F00F90BBB08ED7F057E000206A34E
:1006B900E4FBC294ECC313FCD2943094034304804A
:0906C90012069F0BBB08EBAF0405
:0106D2002205
:1005E000C200D2947F0C7E001206A3C2947F507E7C
:1005F000001206A3D2947F0A7E001206A3A2949250
:060600000012069FA2009B
:0106060022D1
:1004E200E4F9FF1205E07FCC12062D7F4412062D9F
:1004F2001205E07FCC12062D7FBE12062D1206B920
:10050200A9071206B9EFAD01FCE4120129E4FBFAD6
:070512007980783D12001E04
:0105190022BF
:10001E00EC4D6011E8497017ED33EC3304600DE4DC
:10002E00FCFFFEFD22E933E8330470F8020197125B
:10003E00016258046009E4CC24815006285009025C
:10004E0001A128400302019EC0E0EB4A7044B98032
:10005E0006D0E0FB02018DEF4E701CBD8008EBFF59
:10006E00EAFEE9FD80EBE98DF0A4FEE5F002010762
:10007E00E9CDF9EAFEEBFFEF89F0A4FCE5F0CE89BD
:10008E00F0A42EFFE435F0CD89F0A42DFEE435F07A
:10009E008067EF4E7005BD80D780C3EF8BF0A4ACA8
:1000AE00F0EE8BF0A42CFCE435F0F8EF8AF0A42CE3
:1000BE00E5F038FCE433CB8DF0A42CFCE5F03BF8F6
:1000CE00EE8AF0A42CFCE5F038F8E433CF89F0A4E6
:1000DE002CFCE5F038CF3400CE89F0A42FFFE5F0EC
:1000EE003EFEE433C98DF0A42EFEE5F039CD8AF044
:1000FE00A42FFFE5F03EFEE43DFD33D0E0FB5007BC
:10010E000BBB000F0201A1EC2CFCEF33FFEE33FE14
:06011E00ED33FD02017942
:1001240075F020800E75F010800575F0087D007E56
:10013400007F003392D530D50312020DEC3340100A
:10014400EF33FFEE33FEED33FDEC33FCD5F0ED225F
:0E015400E5F0247EA2D513CC92E7CDCEFF229B
:10016200E9D2E7C933E833F892D5EDD2E7CD33ECE3
:0701720033FC5002B2D5225C
:10017900EC30E7100FBF000C0EBE00080DBD0004E7
:100189000BEB6014A2D5EB13FCED92E7FD2274FF93
:10019900FCFDFEFF22E480F8A2D574FF13FC7D80EC
:0301A900E480EF00
:1002270002073FE493A3F8E493A34003F68001F2A7
:1002370008DFF48029E493A3F85407240CC8C333D8
:10024700C4540F4420C8834004F456800146F6DFA7
:10025700E4800B0102040810204080900465E47ECE
:10026700019360BCA3FF543F30E509541FFEE4939C
:10027700A360010ECF54C025E060A840B8E493A363
:10028700FAE493A3F8E493A3C8C582C8CAC583CA8E
:10029700F0A3C8C582C8CAC583CADFE9DEE780BE46
:0104A6000055
:1001AC00BB010CE58229F582E5833AF583E0225008
:1001BC0006E92582F8E622BBFE06E92582F8E22252
:0D01CC00E58229F582E5833AF583E493226C
:1001D900BB010689828A83F0225002F722BBFE0105
:0201E900F322FF
:1001EB00F8BB010DE58229F582E5833AF583E8F04A
:1001FB00225006E92582C8F622BBFE05E92582C8F6
:02020B00F222DD
:0E020D00C3E49FFFE49EFEE49DFDE49CFC2202
:00000001FF
