:03000000020ADE13
:0C0ADE00787FE4F6D8FD758155020B25E9
:100A2F0088080A0A0A0A0A0A0A0A8800000000004F
:100A3F0000000000013800C104024400000146001C
:100A4F0001490008300000000000000000C10A0149
:100A5F00230003280D0305033F000000013B0002A4
:100A6F00420000023D000002240000C106C107023F
:100A7F00260000022C0000024C000002520000026F
:100A8F002E001EC1000239000002470000012B009A
:100A9F00014A00015000C102C103C109C108C10BC5
:100AAF00C185024E0000C101015400015500014BE8
:0A0ABF0000013C00015100011F007E
:100FBE00759850438E01438E0475D7C775D6FE4380
:030FCE008E102260
:100FD100784BE6700D784B76017B007A0079281208
:030FE1000CDA2205
:1006D4007851E6600302082578517601200303026D
:1006E40008253008030207997839E6FE08E6FFC3B7
:1006F40094C8EE94005003020795D3EF94D0EE947F
:1007040007400302079508067828E6783FF678291B
:10071400E67840F6D202D205782BE6784AF6783AA3
:10072400E625E0FD18E633FCE41202C1E4FBFA79A5
:1007340034784212021F7BE47A38798E783F1200B3
:10074400251202FA782BEFF67850E6FEEFD39E409E
:1007540006782BE67850F6783BE6FB7A0024FFFF18
:10076400EA34FFFE783DE6FC08E6FD1203F5AC062C
:10077400AD07782BE675F00AA42DFFEC35F0FEAD3D
:10078400037C00120407783DA60608A607D2088059
:1007940004C202C205300903020825782CE6FE08CB
:1007A400E6FF784CA60608A607120D601202FA7836
:1007B4002CA60608A60730026618E6FE08E6FFD354
:1007C400785396EE18964005A60608A607792BE7F7
:1007D400D3784A96400ED3EF784D96EE189640049F
:1007E400D20B8002C20B783BE6F924FFFFE434FF0E
:1007F400FE7842E6FC08E6FD1203F5AA06AB07788C
:100804002CE6FE08E6FF7C007D0A1203F5EB2FFFC1
:10081400EA3EFEE9FD1204077842A60608A607D2BE
:020824000922A7
:100C3F00783CE67050783C7601200349120E037E13
:100C4F00007824EEF608EFF67C007D641203F5AC15
:100C5F0006AD07E41202C1E4FBFA794C78421202A6
:100C6F001F1202FA7824EEF608EFF6A2079206C3D7
:100C7F0094C8EE94004004C2078002D207300705E3
:060C8F00200602D2032240
:100B6A002003297846E6FF7006783076018017EF71
:100B7A00B4010BE47830F608760108F68017EFB472
:100B8A000213E47830F608F608F68009E47830F6BD
:100B9A0008F6087601D3792DE7782F9619E7189683
:100BAA004004D2008002C200300006A20AE4338068
:100BBA0001E47833F6300506E47834F680047834B4
:100BCA007601783BE6C39402400C300B0578357603
:070BDA000122E47835F62248
:10046A007854E660030206D37854760130035FE4D9
:10047A007806F27808740DF208740AF208F2782CF9
:10048A00E6FA08E6FB7C007D0AFFAE0230021E1285
:10049A000407780BEFF27C007D0AAF03AE02120468
:1004AA0007780CEDF208740BF2782B8066120407B9
:1004BA00780BEFF27C007D0AAF03AE0212040778D4
:1004CA000CEDF208740BF2087410F208F222784666
:1004DA00E614605114700302069B240260030206AC
:1004EA00D37828E6FF75F00A847808F2EF75F00AE7
:1004FA008408E5F0F208740BF27829E6FF75F00A31
:10050A0084780BF2EF75F00A8408E5F0F208740BB0
:10051A00F2782AE6FF75F00A84780EF2EF75F00A8F
:10052A00840802066F7849E61470030205B914704C
:10053A0003020625240260030206D3783BE6780804
:10054A006063740CF208740AF27852E6FA08E6FB61
:10055A007C007D0AFFAE02120407780AEFF27C00E3
:10056A007D0AAF03AE02120407780BEDF208740B92
:10057A00F27842E6FA08E6FB7C007D64FFAE0212DE
:10058A000407780DEFF27C007D0AAF03AE02120475
:10059A00077C007D0A120407780EEDF278067401D2
:1005AA00F278428062740CF208740AF20880687861
:1005BA00087411F208740AF2783BE660567850E63D
:1005CA00FF75F00A84780AF2EF75F00A8408E5F0FC
:1005DA00F208740BF2783DE6FA08E6FB7C007D64CB
:1005EA00FFAE02120407780DEFF27C007D0AAF031A
:1005FA00AE021204077C007D0A120407780EEDF29F
:10060A0078067401F2783DE6FE08E6FF7C007D0A72
:10061A000206CC780A740AF20880657808740EF229
:10062A00783BE66044E6FF75F00A847809F2EF75D4
:10063A00F00A8408E5F0F2783FE6FF75F00A84785C
:10064A000BF2EF75F00A8408E5F0F208740BF27801
:10065A0040E6FF75F00A84780EF2E47806F2EF7548
:10066A00F00A84780FE5F0F222783BE6FF75F00A8B
:10067A00847809F2EF75F00A8408E5F0F208740A42
:10068A00F208F208F208F2E47806F2780F740AF235
:10069A00227808740FF208740AF208F208F208F2D3
:1006AA0008F2782EE6FA08E6FB7C007D0AFFAE0225
:1006BA00120407780EEFF2E47806F2FC7D0AAF0323
:0A06CA00AE02120407780FEDF222D1
:10094F00E4F51A7855E66003020A2E78557601E52C
:10095F001FC454F0F51F120EB1EF421FE51F5411C3
:10096F00FFBF1003751A04E51F5422FFBF20037544
:10097F001A05E51F5444FFBF4003751A08E51F54BD
:10098F0088FFBF8003751A09BF8804D2018002C295
:10099F0001C3784FE694D018E69407402E7846E6C8
:1009AF00B401287849E6B40222E4783BF6782CF6B5
:1009BF0008F67852F608F67842F608F6782BF678AD
:1009CF0050F6783DF608F608F608F6E51A24FB60AF
:1009DF001F24FD602D14603924057043784606E608
:1009EF0075F00384AFF0EFF6640270337849F622A6
:1009FF007846E664017028784906E675F00384A608
:100A0F00F0227846E6B40217782F06E61870100623
:0F0A1F00227846E6B40208782FE6161870011602
:010A2E0022A5
:100FE400438E805389F0438904E4F58AF58CC28DDD
:030FF400D28C227A
:100F9400438E4053890F758B20758DD1C28FD28EAD
:050FA400D2ABD2AF2228
:03001B00020826B2
:10082600C0E0C0F0C083C082C0D075D000C000C098
:1008360001C002C003C004C005C006C00778540644
:10084600783806785506784B06785106783C063097
:100856000321782706E618700106C37827E694B8C0
:1008660018E6940B400DC203C208C209C202760004
:10087600087600784806E61870010678470806E606
:1008860018860670010614C394E8EE9403401CC251
:100896008CAF8CEFAD8A7839F6ED08F6758C00755D
:1008A6008A00D28C7847760008760030010A784FA5
:1008B60006E618700A068007784E760008760078F5
:1008C6002330000306800276007823E6D394644042
:1008D60004B20A76007854E6C3945A400276007849
:1008E60038E6C39408400276007855E6C39414406F
:1008F600027600784BE6C394A0400276007851E673
:10090600C394A040027600783CE6C3946440027625
:10091600007838E6FF2408F8E2FD7838E62400F887
:10092600E2FB120C957B007A007930120D1FD0077E
:10093600D006D005D004D003D002D001D000D0D04C
:09094600D082D083D0F0D0E03261
:100E6100120F94120FE4120FBE7B007A0079281240
:100E71000BE1120D60120FD112046A12094F120C0C
:090E81003F1206D4120B6A80EC4A
:100D9800EF24FB601314601914601F24037024E50A
:100DA800A0541F4480F5A022E5A0541F44A0F5A03C
:100DB80022E5A0541F44C0F5A022E5A0541F44E03A
:070DC800F5A02253A01F2239
:100EF5007580FF7F04120D987580AF0F120D9875E0
:0D0F050080FF0F120D987580FF0F020D98F0
:100AC9001208C0F9A4B0999282F88090FFBFC68637
:040AD9008E8C8889EE
:100C95008F1B8D1C8B1D7580FF7F07120D98E4FF40
:100CA500120D98AF1B7401A807088002C333D8FC46
:100CB500F5807F06120D98E4FF120D987408251C27
:100CC500F8E6F580E51D600353807F7F07120D98D8
:050CD500E4FF020D9890
:060D1F008B1B8A1C891DDC
:100D2500E4F51EFFAB1BAA1CA91D8F82758300125B
:100D35000394FEA807088002C333D8FC421E0FBFE8
:100D450008E2E51E65226012E51EF4F5807F0412B7
:0A0D55000D98E4FF120D98851E2290
:010D5F002271
:100EB100E4FFD2C2D2C4D2B3D2B2C2C420B3010FB2
:100EC10020B2027F02D2C4C2C220B3027F0420B288
:050ED100027F08D2C2FF
:010ED60022F9
:100FF700E4FEC297EF1392A3EFC313FFD2970EBE7F
:0210070008F0EF
:0110090022C4
:030F7D0025F0FD5F
:100F8000C29300C29700D29300120FF7AF05120F61
:040F9000F7C29322EF
:100DCF00E4FDC29300C29700D29300120FF7E4FF25
:100DDF00C297EDC313FD30A303430580D2970FBF16
:100DEF0008EEC29300C29700D29700C2A300D2A30D
:030DFF0000AF053D
:010E020022CD
:100BE100E4FD7F8E120F8012037BFF75F00A84C42F
:100BF10054F0FEEF75F00A84EE7F84120F7D9000B1
:100C01000112039475F00A84C454F0FF12037B753A
:100C1100F00A84EF7F82120F7D9000021203947517
:100C2100F00A84C454F0FF12037B75F00A84EF25A7
:0E0C3100F0FD7F80120F807D807F8E020F808D
:100CDA007F85120DCFEFC4540F75F00AA4FEEF54AE
:100CEA000F2E1203C17F83120DCFEFC4540F75F07C
:100CFA000AA4FEEF540F2E9000011203D37F811233
:100D0A000DCFEFC4540F75F00AA4FEEF540F2E90C6
:050D1A0000020203D3FA
:040F2F00D2A07F0AC3
:100F3300000000000000000000000000000000AE00
:060F4300071FEE70EB2217
:0F100A00D2A1120F2FC2A17F0A120F33C2A02250
:0C101900C2A1120F2FD2A17F0A020F33D8
:020E3500AD0707
:100E3700E4FCC2A07F0A120F33ED30E704D2A18091
:100E470002C2A17F0A120F33D2A0ED25E0FD7F0A6F
:090E5700120F330CBC08DBC2A031
:010E6000226F
:100F1200E4FC120F2FED25E0FD30A103430501C2D1
:0C0F2200A07F0A120F330CBC08E8AF05DA
:010F2E0022A0
:030FA900120E35F0
:100FAC00120F2FA2A1E433FDC2A07F0A120F33AFA0
:010FBC00052F
:010FBD002211
:10000300C2A0EF24FF92A17F0A120F33120F2FC257
:08001300A0D2A17F0A020F3305
:100E0300E4FD12100A7F90120FA97F01120FA9129D
:100E1300100A7F91120E35120FAC120F12E4FF125B
:100E23000003120F12AD077F01120003121019AF56
:010E330005B9
:010E3400229B
:040F49007F057E00A2
:100F4D00EF1FAA0670011E4A600BE4FDEDC3940C61
:050F5D0050EE0D80F7CD
:010F6200226C
:020ED700A90769
:100ED900E4FBC294E9139294120F49D294E9C31323
:0C0EE900F90BBB08ED7F057E00020F4DE9
:100F6300E4FBC294ECC313FCD29430940343048097
:090F7300120F490BBB08EBAF049F
:010F7C002252
:100E8A00C20CD2947F0C7E00120F4DC2947F507E0A
:100E9A0000120F4DD2947F0A7E00120F4DA2949237
:060EAA000C120F49A20C1E
:010EB000221F
:100D6000E4F9FF120E8A7FCC120ED77F44120ED701
:100D7000120E8A7FCC120ED77FBE120ED7120F63CF
:100D8000A907120F63EFAD01FCE41202C1E4FBFA04
:070D90007980783D12011685
:010D97002239
:081025008F993099FDC2992258
:10001E00020366E86480F8E933E83360110460F0A7
:10002E00ED33EC337009E8FCE9FDEAFEEBFF220448
:10003E0060DED3EB9FEA9EE99DE8C2E78CF0C2F743
:10004E0095F0400CE8CCF8E9CDF9EACEFAEBCFFB0F
:10005E0012033185D0F05804700320D5B3E8047034
:10006E00075002B2D502037092D5EC0460F7E4CCCF
:10007E00C0E0C398F8603B94186008400DD0E0FBD8
:10008E00020348E4FBFAC9FC8028E830E406E4C920
:10009E00FBE4CAFCE830E305E4C9CACBFCE854072C
:1000AE006010F8C3E913F9EA13FAEB13FBEC13FC37
:1000BE00D8F130F52FC3E49CFCEF9BFFEE9AFEEDDA
:1000CE0099FDD0E0FBEF4E4D4C701222DB03020384
:1000DE006DEC2CFCEF33FFEE33FEED33FDED30E730
:1000EE00EB020348EF2BFFEE3AFEED39FDD0E0FBBD
:1000FE0050130BBB0003020370ED13FDEE13FEEF66
:08010E0013FFEC13FC0203488F
:10011600EC4D6011E8497017ED33EC3304600DE4E3
:10012600FCFFFEFD22E933E8330470F80203661291
:10013600033158046009E4CC248150062850090292
:10014600037028400302036DC0E0EB4A7044B98097
:1001560006D0E0FB02035CEF4E701CBD8008EBFF8F
:10016600EAFEE9FD80EBE98DF0A4FEE5F00201FF71
:10017600E9CDF9EAFEEBFFEF89F0A4FCE5F0CE89C4
:10018600F0A42EFFE435F0CD89F0A42DFEE435F081
:100196008067EF4E7005BD80D780C3EF8BF0A4ACAF
:1001A600F0EE8BF0A42CFCE435F0F8EF8AF0A42CEA
:1001B600E5F038FCE433CB8DF0A42CFCE5F03BF8FD
:1001C600EE8AF0A42CFCE5F038F8E433CF89F0A4ED
:1001D6002CFCE5F038CF3400CE89F0A42FFFE5F0F3
:1001E6003EFEE433C98DF0A42EFEE5F039CD8AF04B
:1001F600A42FFFE5F03EFEE43DFD33D0E0FB5007C3
:100206000BBB000F020370EC2CFCEF33FFEE33FE4A
:06021600ED33FD02034878
:10021C00020370EC5D046005E85904700302036688
:10022C00120331580460F6EC4860F2EC7004FDFEE9
:10023C00FF22C860DB2481C85009C39860025006B5
:10024C0002036D9850CAF582E9294B4A7005AB82BE
:10025C0002035C75F0007C1A7880C3EF9BEE9AED7C
:10026C0099400DC3EF9BFFEE9AFEED99FDE842F02D
:10027C00DC23ACF0D0E0FFD0E0FED0E0FDAB822080
:10028C00E7101BEB60BAEC2CFCEF33FFEE33FEED0A
:10029C0033FD020348E803F830E705C0F075F000C1
:1002AC00EF2FFFEE33FEED33FD40B830E7C280AAEE
:1002BC0075F020800E75F010800575F0087D007EBD
:1002CC00007F003392D530D50312045CEC33401020
:1002DC00EF33FFEE33FEED33FDEC33FCD5F0ED22C6
:0E02EC00E5F0247EA2D513CC92E7CDCEFF2202
:1002FA00EDD2E7CD33EC3392D524814006E4FFFEFC
:10030A00FDFC22FCE4CFCECDCC24E0501174FF805A
:10031A00EDC3CC13CCCD13CDCE13CECF13CF0470F7
:07032A00F030D5DE02045C97
:10033100E9D2E7C933E833F892D5EDD2E7CD33EC12
:0703410033FC5002B2D5228B
:10034800EC30E7100FBF000C0EBE00080DBD000416
:100358000BEB6014A2D5EB13FCED92E7FD2274FFC2
:10036800FCFDFEFF22E480F8A2D574FF13FC7D801B
:03037800E480EF2F
:100AEA00020E61E493A3F8E493A34003F68001F2B3
:100AFA0008DFF48029E493A3F85407240CC8C3330D
:100B0A00C4540F4420C8834004F456800146F6DFDB
:100B1A00E4800B0102040810204080900A2FE47E32
:100B2A00019360BCA3FF543F30E509541FFEE493D0
:100B3A00A360010ECF54C025E060A840B8E493A397
:100B4A00FAE493A3F8E493A3C8C582C8CAC583CAC2
:100B5A00F0A3C8C582C8CAC583CADFE9DEE780BE7A
:010ADD000018
:10037B00BB010689828A83E0225002E722BBFE0280
:09038B00E32289828A83E49322B3
:10039400BB010CE58229F582E5833AF583E022501E
:1003A40006E92582F8E622BBFE06E92582F8E22268
:0D03B400E58229F582E5833AF583E4932282
:1003C100BB010689828A83F0225002F722BBFE011B
:0203D100F32215
:1003D300F8BB010DE58229F582E5833AF583E8F060
:1003E300225006E92582C8F622BBFE05E92582C80C
:0203F300F222F4
:1003F500EF8DF0A4A8F0CF8CF0A428CE8DF0A42E1C
:02040500FE22D5
:10040700BC000BBE0029EF8DF084FFADF022E4CCD9
:10041700F875F008EF2FFFEE33FEEC33FCEE9DECA2
:10042700984005FCEE9DFE0FD5F0E9E4CEFD22EDE8
:10043700F8F5F0EE8420D21CFEADF075F008EF2F32
:10044700FFED33FD4007985006D5F0F222C398FD23
:050457000FD5F0EA22C0
:0E045C00C3E49FFFE49EFEE49DFDE49CFC22B1
:00000001FF
